:020000040800F2
:1000000078180020B9560008B1520008B352000811
:10001000B5520008B7520008B952000800000000AD
:10002000000000000000000000000000BB520008BB
:10003000BD52000800000000BF520008C152000875
:1000400033570008375700083B5700083F57000850
:1000500043570008475700084B5700084F57000800
:1000600053570008575700085B5700085F570008B0
:1000700063570008675700086B5700086F57000860
:10008000CD520008735700087757000800000000A1
:100090000000000000000000000000007B57000886
:1000A0007F57000883570008875700088B570008C0
:1000B0008F57000893570008975700089B57000870
:1000C0009F570008A3570008A7570008AB57000820
:1000D000AF570008D7520008E152000800000000A6
:1000E000B3570008B7570008BB57000800000000CE
:1000F000000000000000000000000000BF570008E2
:1001000000000000C3570008C7570008CB5700087D
:1001100000000000000000000000000000000000DF
:10012000CF570008D3570008D7570008DB570008FF
:10013000DF57000800000000000000000000000081
:10014000000000000000000000000000E35700086D
:10015000E7570008EB570008EF570008EB5200087C
:10016000F3570008F75700080000000000000000E7
:10017000000000000000000000000000000000007F
:1001800000000000FB570008000000000000000015
:10019000FF570008035800082DE9F04F0FF2A41C88
:1001A000A1B0DCE90089CDE900892A9DDFF8109C27
:1001B000049100248DF843500D944FF0FF3882468F
:1001C00016461F460FE0B3462C461BF8011B049849
:1001D000D0470028049000F0A2800D98401C641EB7
:1001E0000D90F2D176193078252808D1002100220F
:1001F0000791089209910A920B910C920DE06A46C0
:100200004146304600F0F4FF050001D10D98A1E011
:10021000D9D50125E6E741F0010116F8010F2028A4
:10022000F9D023280CD02B2804D02D2805D0302835
:1002300009D076E041F00201EFE741F00401ECE77C
:1002400041F00801E9E741F01001E6E70F9209E00B
:100250000F98484505DA00EB800402EB4402303A7F
:100260000F92761C3278A2F130000A28F0D3307851
:100270002E2818BFCDF8388022D116F8010F2A2871
:1002800007D138683860761C50F8042B38600E921D
:1002900016E02D280CBF761C002000220E920AE0EA
:1002A00040B90E9A4A4505DA02EB820403EB440397
:1002B000303B0E93761C3378A3F130020A2AEFD339
:1002C000ADF8401021A0317800F09CFF08B116F87D
:1002D000010B8DF842009DF84200682804D1307867
:1002E00068280AD1622105E06C2804BF30786C28A8
:1002F00003D171218DF84210761C12A806903A465F
:1003000016F8013B02A9504600F064F838B912AA69
:1003100002A9504600F0CAF900287FF564AF4046B4
:1003200018E02A2892D13A683A6052F8040B3A60F1
:1003300000280F9003D540420F9041F00401761C35
:1003400095E700000000000000000000686A6C747F
:100350007A4C000021B0BDE8F08F622820D06828D8
:1003600011D06A2803D06C2827D0712825D10868BD
:10037000C01D20F007000860D0E9002308300860A5
:10038000194610467047002A0A680A60106803D0B0
:10039000121D0A6000B217E0121D0A6080B217E059
:1003A000002A0A680A60106803D0121D0A6040B271
:1003B0000AE0121D0A60C0B20AE0002A0A680A6058
:1003C000106803D0121D0A60C1177047121D0A6021
:1003D000002170477CB50D4611461C462E69B4F1CC
:1003E000250200F051811C3A00F08680121F022A7B
:1003F00040F282800E3A00F00B81521F5AD0093A27
:100400007AD0921E16D0521E35D0521E022A73D9AF
:10041000121F30D0521F00F09A80521E4AD0521E36
:1004200000F0E480D21E00F00181921E42D0D21E64
:1004300040D02FE195F83A406C2C09D06869421CF5
:100440006A610A680A6052F8043B0A6033542BE17F
:100450000A680A6052F8043B0A6000930022019285
:100460004FF0FF332B636A46294600F09AF90028C3
:1004700040F11A8105E195F83A000122FFF76DFF7E
:10048000C5E900010023994204DA6869411C6961E9
:100490002D220DE0288F810704D56869411C696110
:1004A0002B2205E0C00722D56869411C6961202222
:1004B00032541CE095F83A000022FFF74EFFC5E9E0
:1004C000000195F83800010711D5D5E90023002077
:1004D000834208BF82420AD044F02000782806D127
:1004E000686930213154401C421C6A6134542146F1
:1004F00068693044E86087E00868C01D20F00700A4
:100500000860D0E9002308300860C5E90023D5E978
:100510000001C80F04D06869411C69612D220DE0FB
:10052000288F810704D56869411C69612B2205E089
:10053000C00704D56869411C69612022325468698A
:100540003044E8602146284600F03AFAACE005F174
:100550003A02507820B14FF0FF340FF6343074E097
:100560001078622808D0682824D06A2812D06C2815
:100570002ED071280ED02BE00A680A6052F8040BC6
:100580000A6020B94FF0FF340FF61C305DE0E96AD5
:10059000017089E00A680A6052F8040B0A6020B909
:1005A0004FF0FF340FF600304FE0EA6AD317C0E98E
:1005B000002379E00A680A6052F8040B0A6020B947
:1005C0004FF0FF340FF6E0203FE0E96A01806BE076
:1005D0000A680A6052F8040B0A6020B94FF0FF3431
:1005E0000FF6C42031E0E96A01605DE00A680A6044
:1005F00052F8040B0A60002120F0000221F0FF33C2
:10060000C5E90023EE607821284600F02DF94BE083
:100610006C2285F83A200B680B6053F8042B0B60B2
:1006200052BB4FF0FF340FF6B4200EE095F83A209D
:100630006C2AF0D00868086050F8044B0860EC6041
:100640003CB94FF0FF340FF6782000F003FE201A7B
:1006500076BD2E6B002E04D5204600F01BFE04460E
:1006600008E032460021204600F03EFE002814BF7C
:10067000041B3446AC6117E0294600F092F80028CC
:1006800012D54FF0FF3076BD6869411C69612522A3
:10069000325409E06969481C6861252272542100BE
:1006A00002D0431C6B613454002076BD2DE9F0412B
:1006B0000E4605469046726B7069316AB46A121A2A
:1006C000B069521A716A121AF069521A121A96F81F
:1006D0003800141B41070DD4002C0BDD2746B068F1
:1006E0002021A8470028B06057D0F06A401C7F1E28
:1006F000F062F4D1736942463146284600F0B0FCFE
:1007000000284AD1376A002F0ADDB0683021A84797
:100710000028B06041D0F06A401C7F1EF062F4D126
:10072000B369F2683146284600F09AFCA8BB776AA4
:10073000002F09DDB0683021A847B06068B3F06AC7
:10074000401C7F1EF062F5D1F068B169F369421870
:100750003146284600F084FCF8B9B76A002F09DD5D
:10076000B0683021A847B060B8B1F06A401C7F1E65
:10077000F062F5D196F8380041070BD5002C09DD61
:10078000B0682021A847B06038B1F06A401C641EF0
:10079000F062F5D10020BDE8F0814FF0FF30BDE8F8
:1007A000F0812DE9F8470D46A3B02F6B002F0646C8
:1007B000904648BF6FF000470FF63C1400F0C0FDB4
:1007C000D4E90023696B4018CDE90123812828BFB3
:1007D0004FF0FF3042D20024002F33DDD8F8001054
:1007E00001AA684600F006FD8146B9F1000F38D431
:1007F000D8F8000010B9B9F1010932D44F4521DB16
:100800006869484481280AD30021696303AA2946FC
:100810003046FFF74BFF040014D40020686103AB9F
:10082000D5F814A04A46694603EB0A0000F09AFD89
:10083000CA44C5F814A058F8040B002818BFA7EB49
:100840000907C9D14CB903AA29463046FFF72EFF44
:10085000044614B9002068616863204624B0BDE8EE
:10086000F0874FF0FF34F8E72DE9FC4707468C4648
:100870003E69BCF16F0F08BF082405D04CF0200082
:10088000782814BF0A2410243C25D7E90023BCF1A2
:10089000640F18BFBCF1690F9046994606D100213C
:1008A0008B4203DAD8F1000869EB49094FF0000ADE
:1008B000D14508BFD0451FD1386BE8B9082C4BD1C2
:1008C00097F83800010747D530203B2586F83B00D4
:1008D00042E000280ED597F8380000F014001028E8
:1008E00008D17B6B7969386A5B1A1B1A9A1A002A3D
:1008F000C8BF3A62BDE8F3878DF800C0404649465C
:100900002246E31700F082FD3032D0B26D1E3A2845
:10091000019504DB9DF80000A0F151018A18725581
:10092000404649462246E31700F070FD894680465E
:10093000D14508BFD04503D0F86871198842DDD38E
:10094000082C09D197F83800010705D5705D3028CB
:1009500002D06D1E30207055C5F13C02BA6171198C
:10096000F960386B8242B4DA821A3A624FF6EF705D
:10097000398F01403987BDE8F3872DE9D04306461A
:100980000F4614464FF00008DFF8389412E0E007F5
:1009900007D542464B463046394600F04FFE0646E4
:1009A0000F464046494642464B4600F047FE64101B
:1009B00080468946002CEAD130463946BDE8D083CE
:1009C0002DE9F34F054641F020048DB0D5E90089AB
:1009D000612C02AE09D0286B002848BF062003D442
:1009E00008BF672C01D101202863D5E900235800F6
:1009F0004015401C0ED119030CD00320A8619DF8AE
:100A0000381061391A2902D20FF2F46111E00FF2A5
:100A1000F4610EE059004915491C0FD118030DD19E
:100A20000320A8619DF8381061391A2914D30FF2F8
:100A3000DC61E868032200F095FCD3E1194621F05F
:100A40000043B3F5801F10460DD20027BB4208BFFC
:100A5000BA42019703D111E00FF2AC61E9E701AAB4
:100A600000F0BEFE0AE0DFF8607307EB1352DFF818
:100A70005C3301921940DFF858331943C5E900018E
:100A8000612C0ED1E86830210170821CEA609DF86B
:100A9000381061290CBF7821582141706869801C89
:100AA0006861D5E900AB2BF0004300202AF000027A
:100AB000834204BF8242002300F05B81612C40F03E
:100AC000AA80286B002847BF21210091401C00907C
:100AD000009F7F1C404649460022002300F0B8FEDC
:100AE000D94601998DF8082038BF89F00049091FBF
:100AF000002FD04601910DF1090040F34981B3491F
:100B0000DFF8D0B20C910646404649460022002349
:100B100000F0B6FE80F03B814800400D00F11C0261
:100B200011D0002A0FDD40F2FF70824205DB09F090
:100B3000004040EA0B01002013E00C98014041EA1C
:100B4000025140460DE029F00043002028F0000249
:100B5000834208BF82420FBF40461C22404600F03D
:100B6000A7FE8046894600F041FFFF1F002F044684
:100B700009DD00F059FF02460B464046494600F0A9
:100B800065FF80468946F01D072104E004F00F024E
:100B900000F8012D2411002C01DD491EF6D5491E57
:100BA0005CBF002200F8012DF9D5ECE000201946C9
:100BB00002AA0A4400E05B1E12F80149491E844261
:100BC000F9D00F2804D10DF10900425C521C4254A7
:100BD000002904D50198001D02AE5B1C0190591E2E
:100BE00012D49DF838007218A0F13A07147804F175
:100BF00030085FFA88F43A2CA8BFB844491E02F8BE
:100C00000189F3D58DF83800286B002840F1B080B9
:100C1000591E2963ACE0404649460022002300F0FB
:100C200017FE019938BF89F0004947F297504143B8
:100C3000694A91FBF2F20192D2F1070204DD4046CB
:100C40004946FFF79AFE0AE0524200206349FFF747
:100C500094FE02460B464046494600F069FF804636
:100C6000662C286BDFF878B106BF019F0A3706278C
:100C70003F18142FC8BF142730208DF8080089466C
:100C80000DF1090000E03046002F34DD06464046F5
:100C9000494601F071F801460A4606F108030420AE
:100CA0000A26B2FBF6F606EB860EA2EB4E023032B7
:100CB00003F8012C0A22B6FBF2F202EB820EA6EB3D
:100CC0004E063036401E03F8026DE9D1083F002F72
:100CD00003F10806D7DD084601F062F802460B462C
:100CE0004046494600F0B2FE00225B4600F0A6FCFA
:100CF00080468946CBE70DF10901401A0DF109063E
:100D000004E00199491E401E0191761C317830297A
:100D1000F7D0662C02D10199491C03E0652C0CBF69
:100D2000012100212B6BCB189842B8BF431E002B2A
:100D30001ED4834204DAF05C3528A8BF392000DADB
:100D400030201946721E02EB010800E05B1E18F805
:100D50000199491E8145F9D0392802D1705C401CA7
:100D60007054002904D50198401C16465B1C019064
:100D7000019800B200901BB29DF838103246284608
:100D800000F034F82EE0C61D002F3FF7BDAE304610
:100D90000DF10901401A009903468842C8BF0B466D
:100DA000002B0DF109063FF52FAF8342BFF6FEAED3
:100DB0000DF10900C15C07297FF7F8AE0F20F6E6B8
:100DC000CBCCCC0C0000244002FCFFFFFFFF0F80C7
:100DD0000000E03F0000F07FA08601000000F03F2F
:100DE00084D797410FB0BDE8F08F00002DE9F84798
:100DF00083B006468A461746984600F0FDF9B8F1DA
:100E0000000F406A356B90F8009002DC4FF001084B
:100E1000BFA74AF02000BDF93040662808BF641C17
:100E200015D0672840F0848014F1040FC0F286804A
:100E3000AC4280F2838096F83800641C010702D42B
:100E4000A845B8BF454620B22D1A48BF00250FFA65
:100E500084FAF068B169BAF1000F25DC4A1C30232E
:100E60004354002D03DC96F83800010703D5F068E1
:100E700000F80290521C15EB0A0FB8BF6C4220B26A
:100E8000441941424445B8BFA046B26171620FFAAD
:100E900088F5F561F068B3692A463946184400F0D0
:100EA00061FA641BB462C4E022B29045084417DAC8
:100EB0004246394600F056FAB0694044B061AAEBA8
:100EC0000801002D716203DC96F838100A0705D579
:100ED000F16801F80090F069401CF061B562A8E08B
:100EE000394600F03FFAB069002D5044A8EB0408E1
:100EF00003DC96F838100A0703D5F16801F8009072
:100F0000401CB0610FFA88F08542F368B069B8BF41
:100F1000A8460FFA88F207EB0A01184400F022FAFB
:100F2000B1690FFA88F00144B161281A706280E05B
:100F3000BAF1610F14D14FF0700A16E0A84504DA37
:100F400096F838100A0758BF45466D1E48BF002561
:100F5000BAF1670F14BF4FF0450A4FF0650A04E07D
:100F6000BAF1410F08BF4FF0500AB169F368481C4D
:100F7000B061002D17F8012B5A5403DC96F8381095
:100F80000A071BD5F168431CB36101F80090002DDE
:100F900014DDA8F101080FFA88F039468542F76898
:100FA000B8BFA8460FFA88F2F81800F0DBF9B0696C
:100FB0000FFA88F108446D1AB0617562F068B16982
:100FC0000844002C80F800A003D42B224270811C1E
:100FD00003E02D2141706442811C00206A460AE032
:100FE00023460A2493FBF4F404EB8405A3EB4503A6
:100FF00002F8013B401C24B2002CF1DC012806DC85
:101000004AF02002652A04BF302201F8012B48B9BA
:10101000302001F8010B07E0401E1DF8003030338E
:1010200001F8013B0028F7DCF268B0691044091AA6
:10103000F16196F8380000F0140010280DD17269A3
:10104000B169706A8A18F1698218B06A8A188218C0
:10105000706B8242BCBF821A326204B0BDE8F08776
:10106000F8B505460E4617461C46002074B117F821
:10107000011BB068A847B06030B1F06A401CF06254
:101080000020641EF3D1F2BD4FF0FF30F2BD00002E
:101090007072696E74665F733A20256E206469739E
:1010A000616C6C6F776564007072696E74663A206B
:1010B00062616420256E20617267756D656E7400D3
:1010C0007072696E74665F733A2062616420257382
:1010D00020617267756D656E740000007072696ED4
:1010E00074665F733A2062616420256C73206172BC
:1010F00067756D656E740000000000000000000060
:101100006E616E004E414E00696E6600494E4600AB
:101110003000F0B40246106895681318506803EB6D
:101120005004C0071DD54D441BE013F8017B05F8A2
:10113000017B491EF9D1A0B1B60813F8011B06F0D6
:101140000306032E08BF13F8016B01EB0621494289
:10115000801C294405D011F8016B05F8016B401E75
:10116000F9D1A3420ED013F8016B16F0030104BFAE
:1011700013F8011BC91C30090F28DAD113F8010B31
:101180000F30D6E7F0BC02F10C0070471B487047E7
:1011900070B45368D418042B09DA41B1057804F807
:1011A000015B10F8016B16B15B1C491EF3E753603D
:1011B00070BC704738B514461D4661B1FFF7E8FFB3
:1011C00061686A6B204690476FF00102811A02D075
:1011D000491E01D001E003E005E00021616032BD5D
:1011E0006FF0010032BD4FF0FF3032BDDA6B1047B7
:1011F000024BDFE7014BF9E701487047540000203C
:101200001C0000200278C9B28A421AB11CBF10F833
:10121000012FF9E718BF0020704730B4002513E014
:1012200050F8042BD30744BFA9F101039A18091FF2
:10123000042942F8045BFAD213468C0744BF158098
:101240009B1CC90748BF1D7050F8041B0029E7D13B
:1012500030BC704780B500B906A005490B681BB1CA
:1012600022220021984701E000F0A7FD222002BDC4
:1012700070080020636F6E73747261696E74206809
:10128000616E646C65723A20626164206D6573738F
:101290006167650000F10103810704D010F8011BAC
:1012A000820781B1FAD10268A2F10131914311F0B4
:1012B000803104BF50F8042FF6E709BAB1FA81F182
:1012C00000EBD100401CC01A7047B1F5807F02D3FB
:1012D0004FF0FF3070470170012070470078401ECA
:1012E0008041C043C00F7047C9B2830706D0521E69
:1012F00022D310F8013B9942F7D11FE0083A13D3EB
:1013000002F1040241EA012141EA014150F8043BA3
:10131000121F21BF4B40A3F1013C2CEA030C1CF02F
:10132000803FF3D0C9B2001F083210F8013B521EB3
:1013300028BF91EA030FF8D818BF0120401E70475C
:1013400080B5FFF723FF006C02BD8268521C8260EB
:10135000426832B10268531C036011704168491E33
:101360004160704762B38B0708D0521E11F8013BF1
:1013700000F8013B00F024808B07F6D1830740F092
:10138000208000BF103A07D330B4B1E83810103ACB
:10139000A0E83810F9D230BC530724BFB1E80810D8
:1013A000A0E8081044BF51F8043B40F8043BD207C2
:1013B00024BF31F8022B20F8022B44BF0B780370B6
:1013C0007047121F17D35B0009D151F8043B20F876
:1013D000023B1B0C121F20F8023BF6D20BE051F827
:1013E000043B00F8013B1B0A20F8023B1B0C121FB8
:1013F00000F8013BF3D238BF121D521E24BF11F872
:10140000013B00F8013BF8D870470000BBBBE1B1DD
:10141000B2F5803F80F07E80022A1ED98C46B1FB57
:10142000F2F102FB11C31B0443EA1043B3FBF2FCCD
:1014300002FB1C3380B240EA0343B3FBF2F002FB31
:10144000103240EA0C4000237047022A05D9844636
:10145000B0FBF2F002FB10C270474AB105D100F0B8
:10146000010249085FEA30007047002200237047FC
:1014700000F0A6BC0B000200002100207047904243
:1014800071EB030CF6D3B3F5803F2FD2F0B5B3FA6E
:1014900083F7B1FA81F4A7F10F0E3D1B5340CEF153
:1014A000200602FA0EF2F3415340B5F10F0746D879
:1014B0000F3C2C444140C4F12006A040F141414082
:1014C000B1FBF3F603FB1611A2FB0645001BA94175
:1014D00002D2761E8018594180EA010221FA0EF3E9
:1014E00062FA0EF200215A403046F0BD30B4B1FB32
:1014F000F3FC03FB1C11A2FB0C45001BA94103D20A
:10150000ACF1010C8018594130BC02460B466046D4
:1015100000217047B2F1807F65D3F0B5B2FA82F74F
:10152000B1FA81F4C7F10F063D1B22FA06F307F169
:10153000110EF24120355A40B5F10F07B8D941409C
:10154000C4F12006A040F1414140B1FBF3FC03FB94
:101550001C11A2FB0C45001BA94103D2BCF1010CDC
:10156000801859410F2F12D30F3FC90341EA504150
:10157000B1FBF3F603FB1611A2FB0645D4EBC0301A
:10158000A94102D2761E8018594146EACC3C07B3E5
:101590004140C7F12006B840F1414140B1FBF3F6AC
:1015A00003FB1611A2FB0645001BA94102D2761EC1
:1015B0008018594180EA010221FA0EF3C7F1200494
:1015C00062FA0EF20CFA07F05A402CFA04F130439A
:1015D000F0BD80EA010221FA0EF3002162FA0EF258
:1015E00060465A40F0BD8C46B1FBF2F102FB11C3DC
:1015F0001B0243EA1063B3FBF2FC02FB1C331B0229
:101600004CEA002043EA1063B3FBF2FC02FB1C33FC
:101610001B024CEA002043EA1063B3FBF2FC02FB1E
:101620001C331B024CEA002043EA1063B3FBF2FCBC
:1016300002FB1C324CEA002000237047B0B581EA5F
:10164000030C0CF0004C40F2FF7515EA11541DBF5D
:1016500015EA1357AC42AF4239E0E41923EA455387
:1016600043F48013C90241F0004141EA505EC702D1
:101670001100A7FB020200284FF00000EEFB012042
:101680004FF00001E3FB072118BF42F001024018B0
:1016900000214941E3FB0E01A4F580640F0302D24F
:1016A00052004041494154F101046CDD470872F198
:1016B000004250F1000051EB0451A1F580115CBFD4
:1016C00041EA0C01B0BD4CEA05510020B0BD05EA6D
:1016D0001357AC4214BFAF4241E050EA410E1CBF69
:1016E00052EA430E02E061460020B0BD24423C4471
:1016F0001BD15FEA070EF6D0090302BF01460020A6
:10170000AEF1140EB1FA81F7AEEB070401FA07FE51
:101710000C37C7F1200100FA07F7C8404EEA000E67
:1017200023EA455343F48013A2E733F00043B3FAAE
:1017300083F704BFB2FA82FE77440B3FE41BB7F194
:10174000200E2FBF02FA0EF3BB40C7F1200E22FA83
:101750000EFE38BF43EA0E03BA40641C82E750EA2B
:10176000410E14BF52EA430E6FF000014FF4001710
:1017700017EB430F8ABF194617EB410FB5E74CEA49
:1017800005510020B0BDD4F10104B4F120070FDAF7
:10179000C4F12007520828BF42F0010210FA07F5F1
:1017A00001FA07F7E1BF2A43E0403843E1400FE088
:1017B000352C98DCC7F1200452EA400220FA07F2E7
:1017C00018BF42F0010231FA07F0A1400A4300219C
:1017D00072F1004250F1000051EB0C01B0BD00006D
:1017E00010B5144600F002F8226010BDC1F30A5390
:1017F00043B14A0012F5001F28D2A3F2FE32A1EB3A
:101800000251704750EA410C20D001F0004C31EAFF
:101810000C01B1FA81F204BFB0FA80F3D2180B3A8E
:10182000B2F120032CBF00FA03F1914041EA0C0110
:101830003EBFC2F1200C20FA0CF3194390405242F3
:1018400040F2FD33D21A01EB03517047002270477A
:101850004FF4001C1CEB410F94BF1CEB430F09E03D
:1018600041EA030C50EA4C0C52EA0C0C03D29942A8
:1018700008BF9042704714BF8B42824270470000FD
:101880004FF4001C1CEB410F94BF1CEB430F09E00D
:1018900041EA030C50EA4C0C52EA0C0C03D28B4286
:1018A00008BF8242704714BF9942904270470000BF
:1018B000124254D440F2FF7C1CEA11530FD063450E
:1018C00031D09B1863453CBF01EB0251704701F0DA
:1018D000004141EA0C510020AFF30080704750EA0C
:1018E000410320D001F0004C91EA0C011CD0B1FA68
:1018F00081F30B3B9A420DD9D21A994051EA0C015F
:10190000C3F1200C20FA0CFC61449840531C40F2B7
:10191000FF7CD7E7914041EA0C01C2F1200C20FA8C
:101920000CF3194390407047B0FA80F31533202B25
:10193000E0D3202AEED3203A203B9A4209D9D21A8A
:1019400000FA03F141EA0C010020531C40F2FF7C35
:10195000B8E700FA02F141EA0C0100207047524258
:1019600040F2FF7C1CEA11530DD06345DBD0B2EB93
:10197000030C3CBFA1EB025170470CF1010221EABC
:10198000035141F4801150EA410CCCD001F0004CDD
:10199000352A27DC30B481EA0C01B2F1200309DAE0
:1019A000C2F12003044601FA03F5D0402843D14098
:1019B0009C400CE0C3F12002450020FA03F418BF5C
:1019C00044F0010421FA03F091400C43002174F12A
:1019D000004550F1000051EB0C01244230BC7FF473
:1019E0007BAF70476146002076E70000C1F30A53E1
:1019F00040F2FE329B1A14DDD3F120034FEAE1726C
:101A000008DDC90241EA505141F00040D840801839
:101A10005040704703F2E13010B1D24382F00040F1
:101A20007047002070470000C11768B14840401A55
:101A3000B0FA80F29040D21CC907C2F5846241EA34
:101A4000025202EBD02140057047000070B44FF005
:101A5000004591EA030F40F1B5816B40841A71EBA8
:101A6000030603D2001BB141121973414FF4001C4D
:101A70001CEB410F34BF7CEB430442E00C0DA4EBA4
:101A80001356352E4FDC45EAC323DB0A45EAC12154
:101A9000C912B6F120050DDD63FA05F6EB4086EAC2
:101AA0000305124218BF45F00105C01851F10001AD
:101AB0000CD213E062FA06F5F2405540F3415A4069
:101AC000B340F3405A408018594107D349085FEAB0
:101AD00030005FEA350528BF45F0010501F58011AA
:101AE000420875F1004250F1000041EB04514E00F4
:101AF00016F5001F70BC38BF70470020090D09059E
:101B000070471CEB410F10D252EA43060BD0BCEBDE
:101B1000410F05D80C0DAB43661E342EB6DD02E036
:101B2000AB438018594170BC704770BC70470000CF
:101B3000F0B540F2FF7581EA030C0CF0004C15EA99
:101B400011541DBF15EA1357AC42AF42E5E0BC414A
:101B5000C1F31301C3F31303801A994143F48013B3
:101B600004D2641E4000494180185941C90241EA2B
:101B70005051B1FBF3F603FB1611A2FB0675D7EB30
:101B8000C020A94102D2761E80185941C90241EAFB
:101B90005051B1FBF3FE03FB1E11A2FB0E75D7EBF8
:101BA000C020A94103D2AEF1010E8018594189022B
:101BB00041EA9051760546EA8E2EB1FBF3F603FB1F
:101BC0001611A2FB0675D7EB8020A94102D2761E22
:101BD00080185941C90241EA50514EEA060EB1FB44
:101BE000F3F603FB1611A2FB0675D7EBC020A94143
:101BF00002D2761E80185941C90241EA5051B1FB08
:101C0000F3F703FB1711A2FB0735D3EBC020A94163
:101C100067F100070CBF004247F0010766F3D527C4
:101C20004FEA1E31B80814F5806412DDBD0775F166
:101C3000004250EB0E5051EB045111F5801F5CBF78
:101C400041EA0C01F0BD4CF07F6141F0E041002021
:101C5000F0BDBD076D0840EA0E5041F48011D4F18B
:101C60000104B4F120060ADAC4F120060200E040C3
:101C700001FA06F3E1401843B24015430EE0342C5C
:101C800013DCC6F1200445EA40056D0820FA06F28F
:101C9000154321FA06F0A1400D43002175F10042E1
:101CA00050F1000051EB0C01F0BD00205FEA0C0187
:101CB000F0BDCFB992185B41B3FA83F704BFB2FA13
:101CC00082F6BF190B3FB7F120062FBF02FA06F3C9
:101CD000BB40C7F1200622FA06F638BF3343BA40AC
:101CE0001CB1E419641E33E77F4231F00041B1FAC0
:101CF00081F404BFB0FA80F6A4190B3CB4F12006BD
:101D00002FBF00FA06F1A140C4F1200620FA06F622
:101D100038BF3143A0403C1B1AE7AC421ABF05EA6A
:101D20001357AF4212E050EA41061CBF52EA430685
:101D3000BFE750EA4107304661461CBF41EA055102
:101D4000F0BD52EA430C08BFC143F0BD00204FF480
:101D5000001616EB410F98BF16EB430F08BF16EBAA
:101D6000410F24BFC14305E016EB430F0CBF614692
:101D70004CEA0551F0BD0000400D491840EA8120B1
:101D80000CD2490DA1F58061491C40F0004005DBF3
:101D9000D1F11F0154BFC840C017704700207047E1
:101DA000014648B1B0FA80F18840C91CC1F5846190
:101DB000090501EBD02140057047012000F0B8B8BB
:101DC00070470000841A71EB030604D26E40001BBA
:101DD000B141121973414FF4001C1CEB410F34BF89
:101DE0007CEB430683E00C0DA4EB1356362E00F378
:101DF0007C80012E45EAC32341DC43EA525312BFE3
:101E0000D20292025B08240545EAC12141EA505101
:101E1000D2EBC020994125D407D1B0FA80F610FA50
:101E200006F162D00020203608E0B1FA81F6B14018
:101E3000C6F1200220FA02F21143B0404FEAF474D6
:101E4000B4EB465434F001064FEA74040AD8D6F5D0
:101E50000016760D04F00044F04061FA06F250409E
:101E6000F1404840C00A40EA415021F0004128BFFB
:101E70005FEA500550F1000044EBD12135E0DB0A68
:101E800045EAC121C90AB6F120050EDD42EA024247
:101E9000120CC5F1200603FA06F6EB4042EA0605ED
:101EA0006D42984161F100010DE062FA06F5F240E1
:101EB000554063FA06FC82EA0C02F3405A406D4238
:101EC000904161EB030111F4801F05D1641E62058E
:101ED00002D06D004041494121F48011430875F161
:101EE000004350F1000041EB045170BC70471CEB03
:101EF000410F15D223F0004352EA43060BD04FEABC
:101F00004C0CBCEB410F04D80C0D661E342EB7DD13
:101F1000EBE7801A994150EA410608BF0021E4E747
:101F200008BF1CEB430F28BF6FF00001DDE7000086
:101F300080B5AFF30080024A11001820ABBEFBE76A
:101F40002600020010B50400002C01D101208DE014
:101F5000A06900282AD02068DFF8141188420FD029
:101F60002068DFF8101188420AD02068DFF80811D5
:101F7000884205D04FF48071DFF8000100F048FD81
:101F8000A069002827D0A069B0F5807F23D0A06980
:101F9000B0F5007F1FD0A069B0F5407F1BD040F2A4
:101FA0000111DFF8D80000F033FD14E02068DFF8FD
:101FB000C01088420FD02068DFF8B81088420AD0DD
:101FC0002068DFF8B410884205D040F20511DFF830
:101FD000AC0000F01DFDA068002809D0A068B0F595
:101FE000805F05D040F20711DFF8900000F010FD8F
:101FF000E069002809D0E069B0F5004F05D04FF442
:102000008471DFF8780000F003FD94F839000028AF
:1020100005D1002084F83800200000F033FD242092
:1020200084F839002068C06830F400502168C86026
:10203000200000F09BFA2068006930F4904021688D
:1020400008612068406930F02A00216848612068F2
:10205000C06850F400502168C8600020E063202070
:1020600084F83900202084F83A00002010BD0000D8
:102070000010014000440040001401404C51000891
:102080002DE9FC4705000C0016001F005FF0000A58
:1020900095F83900202860D1002C03D0300080B2A0
:1020A000002801D1012059E095F83800012801D11C
:1020B000022053E0012085F838000020E863212049
:1020C00085F8390000F098FD8146AE84EE84E88CF6
:1020D00000282FD0E88C401EE884A868B0F5805F07
:1020E00018D100974B4600228021280000F052F9B9
:1020F000002801D0032031E0A046B8F80000C00558
:10210000C00D296848602869002801D1A41CDEE7B9
:10211000641CDCE700974B4600228021280000F079
:1021200039F9002801D0032018E020782968486098
:10213000641CCCE700974B4600224021280000F0A9
:1021400029F9002801D0032008E0202085F8390073
:10215000002085F83800002000E00220BDE8F68766
:102160002DE9FC4705000C0016001F005FF0000A77
:1021700095F83A00202865D1002C03D0300080B2B9
:10218000002801D101205EE095F83800012801D136
:10219000022058E0012085F838000020E863222062
:1021A00085F83A0000F028FD8146AE85EE85E88D81
:1021B00000283FD0E88D401EE885A868B0F5805F14
:1021C0001ED100974B4600222021280000F0E2F8A3
:1021D000002801D0032036E0A0462869002807D156
:1021E00028684068C005C00DA8F80000A41CDEE700
:1021F0002868406800F0FF00A8F80000641CD6E7DB
:1022000000974B4600222021280000F0C3F8002848
:1022100001D0032017E02869002804D1286840680D
:102220002070641CC3E72868406810F07F002070AD
:10223000641CBCE7202085F83A00002085F83800AF
:10224000002000E00220BDE8F6872DE9F8430600F3
:10225000306807683068D0F80C803068D0F8149087
:102260000020002517F00F04002C08D1B80606D571
:102270005FEA886003D5300000F027F988E0002C81
:1022800074D05FEAC97002D418F4907F6ED017F052
:102290000100C0B2002806D05FEAC85003D5F06B39
:1022A00050F00100F063780708D519F00100C0B2C2
:1022B000002803D0F06B50F00200F063B80708D597
:1022C00019F00100C0B2002803D0F06B50F00400F8
:1022D000F063380708D519F00100C0B2002803D018
:1022E000F06B50F00800F063F06B00283DD0B806AA
:1022F00005D55FEA886002D5300000F0E6F8306866
:102300004069800910F001000500F06B000701D45E
:10231000002D25D0300000F074F830684069400688
:102320001AD53068406930F0400031684861706B00
:1023300000280DD00FF2ED00716B0865706B00F096
:10234000F9FD002811D0706B716B096D88470CE0A6
:10235000300000F095FF08E0300000F091FF04E04D
:10236000300000F08DFF0020F06311E0380606D544
:102370005FEA086003D5300000F060F808E07806F6
:1023800006D55FEA486003D5300000F08EF8FFE71D
:10239000BDE8F1832DE9F04105000E0090461F00D5
:1023A000069C286800683040B04201D1012000E05E
:1023B00000204146C9B2884220D114F1010FF0D06B
:1023C000002C04D000F018FCC01B8442E9D228681D
:1023D000C06830F4D0702968C86028684069400837
:1023E000400029684861202085F83900202085F8C0
:1023F0003A00002085F83800032000E00020BDE806
:10240000F0810168C96831F490710268D160016897
:1024100049694908490002685161202180F83A1051
:102420007047000038B50400A56B0020E885002047
:10243000E884280000F024FF31BD0000010091F87D
:10244000390021282FD18868B0F5805F11D1086A42
:1024500002001088C005C00D0B685860086900288C
:1024600003D1086A801C086209E0086A401C0862FF
:1024700005E0086A431C0B6200780B685860C88C42
:10248000401EC88480B200280BD10868C06830F0B4
:1024900080000B68D8600868C06850F040000B6886
:1024A000D860002000E00220704710B504002068CA
:1024B000C06830F040002168C860202084F83900EE
:1024C000200000F0DEFE002010BD38B5040094F8B6
:1024D0003A00222848D1A068B0F5805F16D1A06AE2
:1024E00005002069002808D120684068C005C00D9B
:1024F0002880A06A801CA0621AE02068406800F072
:10250000FF002880A06A401CA06211E0206900281A
:1025100006D1A06A411CA16221684968017007E0E8
:10252000A06A411CA1622168496811F07F01017015
:10253000E08D401EE08580B2002813D12068C0687D
:1025400030F490702168C8602068406940084000FD
:1025500021684861202084F83A00200000F092FEB3
:10256000002002E0002000E0022032BD2DE9F84307
:10257000040000266068D249884204D340F68511E1
:10258000CE4800F045FAE068002808D0E068B0F5D1
:10259000005F04D040F68611C84800F039FA20697F
:1025A00000280CD02069B0F5806F08D02069B0F504
:1025B000C06F04D040F68711C04800F029FA606966
:1025C0004FF6F371084202D16069002804D140F649
:1025D0008811BA4800F01CFA2068016931F44051B2
:1025E000E0680143206801612068C268B548024084
:1025F000A3682069034360690343E06903431A4306
:102600002068C2602068456935F44075A0690543BB
:1026100020684561E069B0F5004F40F0A680206871
:10262000A449884203D02068A34988424ED100F0D3
:1026300060FF060000F05DFF070000F05AFF8046D3
:1026400000F057FF814600F054FF642119225643E1
:1026500063685B00B6FBF3F36426B3FBF6F3574302
:1026600066687600B7FBF6F602FB08F867687F003D
:10267000B8FBF7F75FF0640CB7FBFCF701FB1766DC
:10268000F60032366427B6FBF7F6760016F4F876D5
:1026900016EB031602FB09F963685B00B9FBF3F361
:1026A00002FB00F260684000B2FBF0F06422B0FB75
:1026B000F2F001FB1031C80032306421B0FBF1F0C0
:1026C00010F00700861920688660F1E000F006FF30
:1026D000060000F003FF070000F000FF804600F056
:1026E000FDFE814600F0FAFE64211922564363681C
:1026F0005B00B6FBF3F36426B3FBF6F3574366685F
:102700007600B7FBF6F602FB08F867687F00B8FBB7
:10271000F7F75FF0640CB7FBFCF701FB1766F600F8
:1027200032366427B6FBF7F6760016F4F87616EB29
:10273000031602FB09F963685B00B9FBF3F302FBC4
:1027400000F260684000B2FBF0F06422B0FBF2F0EF
:1027500001FB1031C80032306421B0FBF1F010F001
:102760000700861920688660A2E0206851498842E7
:1027700003D02068504988424DD100F0BAFE0600CF
:1027800000F0B7FE070000F0B4FE804600F0B1FE96
:10279000814600F0AEFE64211922564363689B0017
:1027A000B6FBF3F36426B3FBF6F357436668B60053
:1027B000B7FBF6F602FB08F86768BF00B8FBF7F74F
:1027C0005FF0640CB7FBFCF701FB1766360132368D
:1027D0006427B6FBF7F616F0F00616EB031602FBBD
:1027E00009F963689B00B9FBF3F302FB00F2606830
:1027F0008000B2FBF0F06422B0FBF2F001FB10317C
:10280000080132306421B0FBF1F010F00F0086199E
:10281000206886604CE000F061FE060000F05EFE7D
:10282000070000F05BFE804600F058FE814600F095
:1028300055FE64211922564363689B00B6FBF3F3EF
:102840006426B3FBF6F357436668B600B7FBF6F6AB
:1028500002FB08F86768BF00B8FBF7F75FF0640C8D
:10286000B7FBFCF701FB1766360132366427B6FB6F
:10287000F7F616F0F00616EB031602FB09F963688B
:102880009B00B9FBF3F302FB00F260688000B2FB2F
:10289000F0F06422B0FBF2F001FB1031080132309D
:1028A0006421B0FBF1F010F00F00861920688660FB
:1028B000BDE8F18300100140001401404C510008B4
:1028C000A137A000F369FFFF10B500F079FE00F01A
:1028D00028F800F08FFE00F01DFF00F09BF800F0DC
:1028E00031FF00F0B3F8424C200000F08DFF41486A
:1028F00000F08AFF200000F087FF00F099FF3E48BB
:1029000000F082FF00F078F93C4C2168401A42F256
:1029100010718842F6D300F06FF9206001F00EF9D3
:10292000F0E780B592B0002000903548016851F082
:1029300080510160006810F08050009000980020E5
:1029400000903048016851F440410160006810F483
:10295000404000900098012006905FF4A02007906E
:1029600002200C905FF480000D9004200E90A820AF
:102970000F90042010900720119006A801F028F96C
:10298000002803D07A21204800F028F80F20019079
:1029900002200290002003904FF480500490002009
:1029A0000590022101A800F06FFC002803D08721C8
:1029B000154800F013F800F08EFD4FF47A71B0FB6B
:1029C000F1F001F023FC042001F026FC002200219C
:1029D0005FF0FF3001F0E7FB13B000BD38B5040035
:1029E0000D002A002100094800F00EFFFEE700005C
:1029F000B0530008085600088455000868080020F5
:102A0000403802400070004050530008DC54000879
:102A10007047000080B56E486E4901605FF4E13197
:102A20004160002181600021C160002101610C2111
:102A30004161002181610021C161FFF783FA002813
:102A400003D059216148FFF7C9FF01BD80B5624835
:102A5000624901605FF4E131416000218160002141
:102A6000C160002101610C214161002181610021CF
:102A7000C161FFF767FA002803D06C215348FFF7C4
:102A8000ADFF01BD38B586B0040020684E498842CC
:102A900023D1002005905248016851F010010160D7
:102AA000006810F01000059005984FF40440009065
:102AB000022001900120029003200390072004903F
:102AC0006946484801F0DAFB00220021252001F088
:102AD0006AFB252001F08AFB74E020683D498842AA
:102AE0004AD1002005904048016851F4003101604E
:102AF000006810F40030059005980C20009002202A
:102B00000190012002900320039007200490694661
:102B1000344801F0B3FB354D354828605FF0006064
:102B200068600020A8600020E8604FF480602861A1
:102B3000002068610020A8610020E8610020286270
:102B4000042068620320A8620020E8620020286355
:102B5000280000F057F8002803D0B3211B48FFF7E6
:102B60003DFF6563AC6300220021262001F01BFBC2
:102B7000262001F03BFB25E020681849884221D13E
:102B8000002005901648016851F02001016000689E
:102B900010F0200005900598C020009002200190C0
:102BA00001200290032003900820049069461148F8
:102BB00001F064FB00220021472001F0F4FA4720D5
:102BC00001F014FB07B030BD001001408053000835
:102BD000C8070020004400400808002000140140FD
:102BE000443802400000024040380240D80600202D
:102BF000886002400008024001480068704700BF3A
:102C00006C08002070B504000025FFF7F5FF0600F2
:102C1000002C01D101208CE12068DFF87815884272
:102C20004FD02068DFF8701588424AD02068DFF85E
:102C30006C15884245D02068DFF86415884240D082
:102C40002068DFF8601588423BD02068DFF858150F
:102C5000884236D02068DFF85415884231D0206889
:102C6000DFF84C1588422CD02068DFF848158842E0
:102C700027D02068DFF84015884222D02068DFF88E
:102C80003C1588421DD02068DFF83415884218D0E2
:102C90002068DFF83015884213D02068DFF8281547
:102CA00088420ED02068DFF82415884209D02068B9
:102CB000DFF81C15884204D0C821DFF81805FFF79B
:102CC000A7FE6068002820D06068B0F1007F1CD0AB
:102CD0006068B0F1806F18D06068B0F1C06F14D038
:102CE0006068B0F1006F10D06068B0F1206F0CD058
:102CF0006068B0F1406F08D06068B0F1606F04D0D8
:102D0000C921DFF8D004FFF783FEA06800280AD0AD
:102D1000A068402807D0A068802804D0CA21DFF826
:102D2000B404FFF775FEE068B0F5007F07D0E068F7
:102D3000002804D0CB21DFF89C04FFF769FE20694E
:102D4000B0F5806F07D02069002804D0CC21DFF8CF
:102D50008404FFF75DFE606900280CD06069B0F55F
:102D6000006F08D06069B0F5805F04D0CD21DFF836
:102D70006404FFF74DFEA06900280CD0A069B0F5EF
:102D8000005F08D0A069B0F5804F04D0CE21DFF8F5
:102D90004404FFF73DFEE06900280BD0E069B0F580
:102DA000807F07D0E069202804D0CF21DFF82404F9
:102DB000FFF72EFE206A002810D0206AB0F5803F71
:102DC0000CD0206AB0F5003F08D0206AB0F5403F33
:102DD00004D0D021DFF8FC03FFF71AFE606A002858
:102DE00007D0606A042804D0D121DFF8E803FFF798
:102DF0000FFE606A002838D0A06A00280DD0A06AB3
:102E000001280AD0A06A022807D0A06A032804D0AB
:102E1000D621DFF8C003FFF7FBFDE06A002810D0E1
:102E2000E06AB0F5000F0CD0E06AB0F1807F08D006
:102E3000E06AB0F1C07F04D0D721DFF89803FFF734
:102E4000E7FD206B002810D0206BB0F5001F0CD0E0
:102E5000206BB0F5800F08D0206BB0F5C00F04D008
:102E6000D821DFF87003FFF7D3FD002084F8340089
:102E7000022084F83500206800684008400021687E
:102E8000086020680068C0070BD5FFF7B5FE801BFF
:102E90000628F6D320206065032084F8350003203F
:102EA00047E020680168DFF8300301406268A068ED
:102EB0000243E06802432069024360690243A0695B
:102EC0000243E0690243206A02431143606A042816
:102ED00003D1E26A206B024311432068016020683D
:102EE0004569ED08ED00606A0543606A042810D169
:102EF000A06A0543E06A00280BD0200000F072F9B8
:102F0000002806D040206065012084F835000120AB
:102F10000FE020684561200000F024F901003F2205
:102F2000E06D82408A6000206065012084F83500F1
:102F3000002070BD010091F83500022803D08020E8
:102F40004865012009E0052081F83500086800681F
:102F5000400840000A68106000207047F8B504007F
:102F600000200090DFF8740200684FF41651B0FBA7
:102F7000F1F5A66D37680821E06D11FA00F00742FF
:102F800010D02068006840070CD52068006830F039
:102F9000040022681060E06D8140B160606D50F007
:102FA00001006065E06D3900C140C8070BD520689D
:102FB0004069000607D50121E06D8140B160606D78
:102FC00050F0020060650421E06D11FA00F0074244
:102FD0000AD020680068800706D5E06D8140B160A6
:102FE000606D50F0040060651021E06D11FA00F092
:102FF00007422CD020680068000728D5E06D81408A
:10300000B16020680068400311D5206800680003A3
:1030100006D4206C00281AD02000216C884716E0C6
:10302000A06C002813D02000A16C88470FE0206816
:103030000068C00505D42068006830F008002168E9
:103040000860206C002802D02000216C88472021D5
:10305000E06D11FA00F007425FD020680068C006FA
:103060005BD5E06D8140B16094F83500052828D12A
:103070002068006830F01600216808602068406908
:1030800030F0800021684861206C002802D1A06CDB
:10309000002805D02068006830F00800216808602A
:1030A0003F21E06D8140B160002084F834000120B0
:1030B00084F83500206D002802D02000216D88475B
:1030C0004FE020680068400311D5206800680003C5
:1030D00006D4606C002820D02000616C88471CE07A
:1030E000E06B002819D02000E16B884715E02068CC
:1030F0000068C0050BD42068006830F0100021681B
:103100000860002084F83400012084F83500E06B6A
:10311000002802D02000E16B8847606D002820D095
:10312000606DC00717D5052084F835002068006859
:1031300040084000216808600098401C00908542CB
:1031400003D320680068C007F6D4002084F8340058
:10315000012084F83500E06C002802D02000E16CEA
:103160008847F1BD017801F0FF0110391822B1FB49
:10317000F2F11B4A525CC265042905D30268920A27
:103180009202121D826503E00268920A9202826531
:10319000806D70471060024028600240406002402D
:1031A000586002407060024088600240A0600240A7
:1031B000B86002401064024028640240406402404B
:1031C000586402407064024088640240A064024077
:1031D000B8640240A85100083F8010F01800002099
:1031E0001457000810B402000020936A9169002966
:1031F00016D1002B05D0022B03D008D3032B0DD002
:103200000DE0D16AC90101D50121080035E0D16A7C
:10321000B1F1C07F01D1012108002EE02DE02CE0AA
:103220009169B1F5005F18D1002B05D0022B03D0B6
:1032300005D3032B09D00FE0012108001DE0D16A5E
:10324000C90101D50121080017E0D16AB1F1C07FA1
:1032500001D10121080010E00FE019000029022926
:1032600002D9C91E03D008E00121080005E0D16A97
:10327000C90101D501210800FFE7C0B210BC7047A9
:1032800070477047704700002DE9F04104000D00C1
:10329000002C01D101201CE12068002802D0206808
:1032A000102805D34FF41471DFF85C02FFF7B0FB70
:1032B000002D13D0012D11D0022D0FD0032D0DD0D4
:1032C000042D0BD0052D09D0062D07D0072D05D0D4
:1032D00040F25121DFF83002FFF79AFBDFF82C7241
:1032E000386810F00F00A84207D23D70386810F01F
:1032F0000F00A84201D00120EBE0207880073AD5EA
:103300002078400705D5DFF80802016851F4E05144
:1033100001602078000705D5DFF8F401016851F459
:1033200060410160A06800281DD0A06880281AD0E4
:10333000A068902817D0A068A02814D0A068B02852
:1033400011D0A068C0280ED0A068D0280BD0A068EB
:10335000E02808D0A068F02805D04FF41D71DFF8F0
:10336000A801FFF755FBDFF8A8110A6832F0F00258
:10337000A06802430A602078C00749D56068002829
:103380000DD0606801280AD06068022807D0606804
:10339000032804D040F27B215B48FFF739FB6068CB
:1033A000012805D15B480068800313D4012090E018
:1033B0006068022802D06068032805D1554800687B
:1033C000800107D4012084E052480068800701D4BE
:1033D00001207EE0DFF83881D8F8001089088900E4
:1033E00060680143C8F80010FFF706FC0600D8F833
:1033F000000010F00C006168B0EB810F08D0FFF7FF
:10340000FBFB801B41F289318842F0D3032060E04E
:10341000386810F00F00854207D23D70386810F010
:103420000F00A84201D0012053E0207840071ED5AC
:10343000E068002814D0E068B0F5805F10D0E06844
:10344000B0F5A05F0CD0E068B0F5C05F08D0E068D0
:10345000B0F5E05F04D040F2B9212B48FFF7D8FA6D
:103460002B490A6832F4E052E06802430A6020788F
:1034700000071FD52069002814D02069B0F5805FAF
:1034800010D02069B0F5A05F0CD02069B0F5C05F06
:1034900008D02069B0F5E05F04D04FF430711A48CD
:1034A000FFF7B6FA1A48016831F46041226951EA1F
:1034B000C201016000F036F81749154A1268C2F3DC
:1034C0000312895CC84015490860002001F0F6F835
:1034D0000020BDE8F08111480068704780B5FFF713
:1034E000FAFF0F490A4A1268C2F38222895CC84077
:1034F00002BD80B5FFF7EFFF0949054A1268C2F324
:103500004232895CC84002BD58520008003C02406B
:103510000838024000380240A85600081800002071
:103520001C5700082DE9F041002400250026002743
:103530001F48006810F00C00002804D0042804D0B4
:10354000082804D031E01B4830E01B482EE0DFF8AB
:103550006C80D8F8000010F03F000400D8F800009C
:1035600040020CD5D8F80000C0F388101249A1FB26
:10357000000122000023FDF749FF05000BE0D8F809
:103580000000C0F388100B49A1FB000122000023BA
:10359000FDF73CFF0500D8F80000C0F30140401CD7
:1035A00040000600B5FBF6F000E00248BDE8F081FF
:1035B000083802400024F40000127A000438024067
:1035C00080B50B48016851F400710160016851F445
:1035D00080610160016851F480710160032000F096
:1035E000CDFD002001F06AF801F08EF8002002BD48
:1035F000003C024038B586B0002005903F48016885
:1036000051F004010160016811F004010591059970
:1036100000210591016851F080010160016811F0FD
:1036200080010591059900210591016851F0010182
:103630000160016811F001010591059900210591D2
:10364000016851F002010160016811F00201059169
:10365000059900210591016851F008010160006899
:1036600010F0080005900598254C0022202120002C
:1036700000F0D7FF4FF40050009022480190002046
:103680000290214D6946280000F0F8FD41F63F7098
:10369000009003200190002002906946280000F06D
:1036A000EDFDD32000900320019000200290694698
:1036B000200000F0E3FD2020009001200190002078
:1036C0000290002003906946200000F0D7FD4FF2E1
:1036D000F7700090032001900020029069460B488B
:1036E00000F0CCFD04200090032001900020029007
:1036F0006946074800F0C2FD07B030BD30380240CF
:1037000000000240000021100008024000040240B6
:10371000000C024080B5002000900948016851F477
:1037200000110160006810F4001000900098002261
:103730000021102000F037FD102000F057FD01BDE2
:103740003038024080B52B485FF0A0410160042171
:1037500041600221C160002101610021416102211B
:1037600081610121C16100210162002141620121C9
:10377000C1620021016301F013F8002803D0452144
:103780001D48FFF72BF901BD38B586B0040020684D
:10379000B0F1A04F2BD14FF4C850019002200290FD
:1037A00000200390032004900A200590134D01A9E6
:1037B000280000F063FD4FF400700190002002909B
:1037C0000020039001A9280000F058FD0C48016872
:1037D00051F080010160002000900A48016851F416
:1037E00080410160006810F480400090009807B0AC
:1037F00030BD0000E80000201C530008000002401B
:1038000034380240443802400EB4C0B5024603A822
:1038100000210190009101AB0121044878440C3053
:10382000FCF7BAFC06BC5DF810FB00BFB91D000038
:1038300038B50024A848FFF7E7FFA84D64200090A2
:10384000202307222900A64801F044F8002809D1C6
:10385000092004000F222000C0B205EB0001A1489E
:1038600001F0AAF8642000902023082229009E4835
:1038700001F030F8002809D10A2004000F222000AE
:10388000C0B205EB0001994801F096F86420009061
:103890004FF4807308222900954801F01BF84FF47B
:1038A0007A7000904FF480730D222900914801F046
:1038B00011F84FF47A7000904FF4807317222900AA
:1038C0008D4801F007F800F04FF800F007F80028E5
:1038D00002D05FF0FF3000E0002032BD2DE9FC4750
:1038E0004FF4807425000026844FB846320029002A
:1038F000404601F099F85FF00008DFF8E091CA4611
:1039000042462100504601F08FF80D227C493800D4
:1039100001F052F87B4901F0BAF87B49380001F018
:10392000B6F8704901F0B3F87849380001F0AFF803
:10393000FDF7B0FC020042F2107000904FF480736B
:1039400092B24946380000F0C5FF002805D149462B
:103950006F48FFF759FF002004E06E48FFF754FF5F
:103960005FF0FF30BDE8F6872DE9F8434FF480752E
:103970002E000027594CA0463A003100404601F085
:1039800053F85FF00008DFF874914246290048467A
:1039900001F04AF842F2107000904FF480730D224B
:1039A00021005D4800F096FF002805D121005B480A
:1039B000FFF72AFF002004E05948FFF725FF5FF0DA
:1039C000FF30BDE8F2832DE9F84F8AB005000E0004
:1039D00006A854491022FDF7D5FC06A8FDF75AFCAD
:1039E0000400002700208DF804004FF48079CDF802
:1039F000149000200490DFF80481C246049A0599CF
:103A0000504601F011F8CDF80C9000200290DFF83C
:103A1000CC90CA46029A0399504601F005F820005E
:103A2000C0B200900DF1180AC346009A514658469C
:103A3000FDF798FC3800C0B2295C3B48FFF7E4FE74
:103A40003800C0B22B5C394A03212000C0B2404488
:103A500001F02CF87F1CA41C38003100C0B2C9B2A0
:103A60008842E7D30D202100C9B208F80100641C88
:103A700041462F48FFF7C8FE002000904FF48073A6
:103A80002200D2B292B24946404600F023FF0028FD
:103A900015D12848FFF7B8FE5FF000092000C0B23A
:103AA000814507DA18F8091009A0FFF7ADFE19F1F2
:103AB0000109F3E707A0FFF7A7FE002004E01E4876
:103AC000FFF7A2FE5FF0FF300BB0BDE8F08F000003
:103AD000257820000A0D000048540008D804002072
:103AE000EC56000848080020C85600085808002076
:103AF000D4560008685600089C550008D8050020D8
:103B00007856000804000020F4560008FC5600080F
:103B1000F85400086854000888560008B455000896
:103B20001455000898560008045700080C57000860
:103B30001C560008305500088854000810B5CCB059
:103B40000CA84FF4807100F0D3FF0120ADF81800ED
:103B500050208DF81A001A490878002802D16420F4
:103B6000087001E008780870164800680790164849
:103B700040F26711CDE90A010A208DF80400012006
:103B8000ADF806001148029064208DF80C00042066
:103B9000ADF80E0001A804900CA8009003AB06AA93
:103BA000F021012000F0B4FF0400200040B2012801
:103BB00004DB2100C9B20CA8FFF705FF4CB010BD13
:103BC000E40000200000002048D6AF8274080020E6
:103BD0002DE9FC410400002C01D101203FE22068C6
:103BE000102804D3F821DFF87C04FEF711FF2078B9
:103BF000C0076FD5606800280CD06068B0F5803FC2
:103C000008D06068B0F5A02F04D0FD21DFF854047F
:103C1000FEF7FEFEDFF85004016811F00C010429E4
:103C200009D0006810F00C0008280ED1DFF83C0421
:103C30000068400209D5DFF838040068800349D5E0
:103C40006068002846D1012009E26068B0F5803F35
:103C500006D1DFF81C04016851F48031016018E0DE
:103C60006068B0F5A02F0AD1DFF80404016851F4B0
:103C700080210160016851F48031016009E0DFF8C2
:103C8000F003016831F480310160016831F4802172
:103C90000160606800280ED0FEF7AEFF0500DFF877
:103CA000D0030068800315D4FEF7A6FF401B6528EB
:103CB000F5D30320D3E1FEF79FFF0500DFF8B00343
:103CC0000068800306D5FEF797FF401B6528F5D3F3
:103CD0000320C4E12078800766D5E068002808D07A
:103CE000E068012805D040F22F11DFF87803FEF7D5
:103CF0008FFE2069202805D34FF49871DFF8640304
:103D0000FEF786FEDFF86003016811F00C0F09D0A2
:103D1000006810F00C00082816D1DFF85003006886
:103D2000400211D4DFF848030168890704D5E1682F
:103D3000012901D0012092E1016831F0F8012269E6
:103D400051EAC20101602FE0E06800281AD001208A
:103D5000DFF820130860FEF74FFF0500DFF81003BF
:103D60000168890706D4FEF747FF401B0328F5D3F7
:103D7000032074E1016831F0F801226951EAC201BF
:103D8000016011E00020DFF8EC120860FEF734FF5C
:103D90000500B7480068800706D5FEF72DFF401BD9
:103DA0000328F6D303205AE1207800072FD5606955
:103DB000002807D06069012804D04FF4B871A948E1
:103DC000FEF726FE6069002810D00120AA4908608D
:103DD000FEF712FF0500A9480068800717D4FEF718
:103DE0000BFF401B0328F6D3032038E10020A24933
:103DF0000860FEF701FF0500A0480068800706D5AF
:103E0000FEF7FAFE401B0328F6D3032027E12078B3
:103E1000400740F184800026A06800280AD0A068EE
:103E2000012807D0A068052804D04FF4CE718D4832
:103E3000FEF7EEFD924F3868C0000CD400200090D1
:103E4000386850F080503860386810F0805000902A
:103E5000009801200600DFF82C82D8F80000C00589
:103E600013D4D8F8000050F48070C8F80000FEF7B2
:103E7000C3FE0500D8F80000C00506D4FEF7BCFE5E
:103E8000401B0328F6D30320E9E0A068012805D1F0
:103E90007D48016851F00101016015E0A068052826
:103EA00009D17948016851F004010160016851F0BD
:103EB0000101016008E07448016849084900016097
:103EC000016831F004010160A06800280FD0FEF7FE
:103ED00093FE05006C480068800718D4FEF78CFE3E
:103EE000401B41F289318842F4D30320B7E0FEF74A
:103EF00083FE050064480068800708D5FEF77CFE55
:103F0000401B41F289318842F4D30320A7E03000FE
:103F1000C0B2012803D1386830F080503860A06901
:103F200000280AD0A069012807D0A069022804D07F
:103F300040F2DF114B48FEF76BFDA069002800F04E
:103F40008D804948006810F00C00082800F084803B
:103F5000A06902286FD1E069002808D0E069B0F5B7
:103F6000800F04D04FF4F4713E48FEF751FD206AF3
:103F7000402804D340F2E9113A48FEF749FD606A4F
:103F8000C02804D3606A40F2B111884204D34FF4D0
:103F9000F5713448FEF73CFDA06A02280DD0A06AF6
:103FA00004280AD0A06A062807D0A06A082804D0EE
:103FB00040F2EB112B48FEF72BFDE06A022802D3FA
:103FC000E06A102804D34FF4F6712648FEF720FD6E
:103FD0002E4E00203060FEF70FFE0700DFF89080C5
:103FE000D8F80000800106D5FEF706FEC01B0328A6
:103FF000F4D3032033E0E169206A0143606A51EAA7
:104000008011A06A4008401E51EA0041E06A51EA6E
:1040100000611648016001203060FEF7EDFD0500EB
:10402000D8F80000800119D4FEF7E6FD401B0328F4
:10403000F6D3032013E0002014490860FEF7DCFDEE
:1040400005000B480068800108D5FEF7D5FD401B30
:104050000328F6D3032002E0012000E00020BDE8A1
:10406000F68100BF58520008083802400438024068
:104070000038024000004742800E47427438024038
:1040800040380240007000407038024060004742F3
:1040900010B410F00703DFF8B44122684FF6FF01B7
:1040A0000A40DFF8AC1151EA03210A43226010BC38
:1040B0007047DFF898010068C0F3022070470122C2
:1040C00010F01F018A40DFF88C1103005BB25B091E
:1040D00041F82320704710B4020052B2002A0AD5DA
:1040E0000A01DFF87431040064B214F00F042344B1
:1040F00003F8042C05E00A01DFF86031040064B223
:104100001A5510BC704770B4030013F00704D4F1C3
:104110000700052801D3042001E0D4F10700251D84
:10412000072D01D2002500E0E51E012616FA00F059
:10413000401E0140A94016FA05F56D1E2A401143A4
:10414000080070BC704710B50400601EB0F1807F9D
:1041500001D3012011E0601EDFF8041108600F2177
:104160005FF0FF30FFF7B7FF0020DFF8F8100860BE
:104170000720DFF8F4100860002010BD10B504001F
:10418000072C0CD0062C0AD0052C08D0042C06D005
:10419000032C04D0A221DFF8D400FEF739FC200064
:1041A000FFF776FF10BD2DE9F04104000D00160069
:1041B0000027102E04D3BA21DFF8B000FEF728FC48
:1041C000102D04D3BB21DFF8A400FEF721FCFFF77C
:1041D00070FF8046320029004046FFF794FF01003F
:1041E000200040B2FFF777FFBDE8F08110B5040072
:1041F000200040B2002804D5CE21DFF87000FEF781
:1042000007FC200040B2FFF75AFF10BD10B50400B4
:104210002000FFF798FF10BD10B50400042C06D055
:10422000002C04D040F2D9111048FEF7F1FB042C09
:1042300005D10D48016851F00401016004E00A480D
:10424000016831F00401016010BD00000CED00E0D8
:104250000000FA0500E100E018ED00E000E400E0F5
:1042600014E000E018E000E010E000E094500008E6
:1042700080B500F001F801BD704700002DE9F84F4E
:1042800004000D00002600275FF0000BDFF8E003BC
:10429000844218D0DFF8DC03844214D0DFF8D8035E
:1042A000844210D0DFF8D40384420CD0DFF8D0036E
:1042B000844208D0DFF8CC03844204D0C321DFF865
:1042C000C803FEF7A5FB2868000404D02868000C8A
:1042D0000004002804D0C421DFF8AC03FEF798FBEB
:1042E0006868002831D0686801282ED068681128D5
:1042F0002BD06868022828D06868122825D0686802
:10430000DFF88813884220D06868DFF88413884279
:104310001BD06868DFF87C13884216D06868DFF825
:104320007813884211D06868DFF8701388420CD087
:104330006868DFF86C13884207D06868032804D0E7
:10434000C521DFF84403FEF763FBA86800280AD004
:10435000A868012807D0A868022804D0C621DFF881
:104360002803FEF755FB5FF00008B8F1100F80F04E
:1043700056815FF0010919FA08F0060028683040FC
:104380000700B74240F048816868022802D0686898
:10439000122878D1286900285BD02869092858D0CC
:1043A0002869002855D02869002852D0286900289B
:1043B0004FD0286900284CD02869012849D02869A5
:1043C000012846D02869022843D02869022840D015
:1043D000286902283DD0286904283AD02869042891
:1043E00037D02869042834D02869052831D02869B5
:1043F00005282ED0286905282BD02869062828D022
:104400002869062825D02869052822D02869062889
:104410001FD0286907281CD02869072819D02869C7
:10442000072816D02869082813D028690A2810D030
:10443000286909280DD0286909280AD028690C287C
:1044400007D028690F2804D0D721DFF83C02FEF7F7
:10445000DFFA4046C00804EB8000016A0F2218F022
:104460000700C0B28000824091432A6918F007001B
:10447000C0B28000824011438B464046C00804EB26
:104480008000C0F820B021685FF0030A4046C0B247
:1044900040001AFA00F081432A7912F003024046E4
:1044A000C0B24000824011430091009820606868CB
:1044B000012808D06868022805D06868112802D051
:1044C000686812282CD1E86800280DD0E868012817
:1044D0000AD0E868022807D0E868032804D0EA2157
:1044E000DFF8A401FEF794FAA1684046C0B240008C
:1044F0001AFA00F08143EA684046C0B240008240A8
:104500001143A160606819FA08F930EA09006A6885
:10451000C2F3001212FA08F2104300900098606093
:10452000D4F80CB04046C0B240001AFA00FA3BEA98
:104530000A0BA9684046C0B24000814051EA0B0B0B
:10454000C4F80CB06868C00066D500200090DFF8A1
:104550005401016851F480410160006810F480400A
:1045600000900098DFF840214046800852F8201063
:104570000F2318F00300C0B2800083409943DFF896
:10458000F000844201D1002317E0DFF8E800844204
:1045900001D1012311E0DFF8E000844201D10223C0
:1045A0000BE0DFF8D800844201D1032305E0344852
:1045B000844201D1042300E00723DBB218F003009A
:1045C000C0B28000834019434046800842F8201062
:1045D000364A1068B8436B68DB0300D53843106077
:1045E000334A1168B9436B689B0300D539431160A6
:1045F000304A1068B8436B68DB0200D5384310605E
:104600002D49D1F800B03BEA070B6A68920201D548
:1046100057EA0B0BC1F800B018F10108A5E6BDE898
:10462000F18F70B504000E001500300080B2002834
:1046300004D140F2AF111448FEF7EAF92800C0B2E5
:10464000002808D02800C0B2012804D04FF4D87147
:104650000D48FEF7DDF92800C0B2002803D0300075
:1046600080B2A06103E0300080B20004A06170BDA0
:10467000000002400004024000080240000C02401A
:1046800000100240001C0240F05000080000111011
:104690000000211000003110000012100000221054
:1046A000000032104438024008380140003C01400C
:1046B000043C0140083C01400C3C014010B50400A2
:1046C0004FF47A700D490978B0FBF1F00C49096894
:1046D000B1FBF0F0FFF79AFD002801D001200CE0BB
:1046E000102C09D2002221005FF0FF30FFF75BFDA4
:1046F00004480460002000E0012010BDE500002017
:10470000180000201400002080B5002000902248EE
:10471000016851F480410160006810F4804000900D
:104720000098002000901D48016851F08051016000
:10473000006810F08050009000980720FFF71EFDE1
:10474000002200217FF00B00FFF72DFD0022002149
:104750007FF00A00FFF727FD002200217FF009000B
:10476000FFF721FD002200217FF00400FFF71BFD71
:10477000002200217FF00300FFF715FD0022002139
:104780007FF00100FFF70FFD002200215FF0FF30F6
:10479000FFF709FD01BD00BF443802404038024028
:1047A00038B58AB004000025002C01D101208DE02D
:1047B0002068B0F1A04F04D09421DFF81401FEF777
:1047C00027F9032084F8B9032000FEF7DDFF2068F5
:1047D00000F0A5FA211D83B068463422FCF7D2FD13
:1047E0000EBC206800F064FA0021206800F09EFAF8
:1047F00000200F2826D21C21012201FB00F32344B4
:1048000083F8392001FB00F2224482F8380001FBD2
:1048100000F22244D087002201FB00F3234483F8F6
:104820003B20002201FB00F323441A64002201FB19
:1048300000F323445A64002201FB00F12144CA64BE
:10484000401CD6E700250F2D2FD21C20002100FB95
:1048500005F2224482F8F91100FB05F1214481F8A8
:10486000F85100FB05F12144CD87002100FB05F242
:10487000224482F8FB11002100FB05F22244C2F819
:104880000012002100FB05F22244C2F804120021AC
:1048900000FB05F02044C0F80C120020216801EB59
:1048A0008501C1F804016D1CCDE7211D83B0684668
:1048B0003422FCF767FD0EBC206800F054FA01209A
:1048C00084F8B903206800F055FB00200BB030BD20
:1048D000005200082DE9F84F05000E0017000A9C51
:1048E0002F48FEF791FF5FF000084046390080B284
:1048F00089B2884208D2404680B2295C25A0FEF7E2
:1049000083FF18F10108F0E723A0FEF77DFFDFF831
:10491000948064233A0092B229004046FDF7B0FB30
:1049200000280CD0204B214A0421300000F0BEF8B2
:1049300031001AA0FEF768FF5FF0FF3027E04FF468
:1049400080795FF0000AB34652464946584600F067
:104950006BF8200080B2002818D023009BB2BDF86D
:10496000002031004046FDF7FBFB3000FCF792FCD5
:10497000002805D10E48FEF747FF5FF0FF3006E044
:1049800031000C48FEF740FF002000E00020BDE8A9
:10499000F28F0000257820000A0D0000257300002A
:1049A00030560008080800204C550008245700081D
:1049B000CC5500084456000801B58B071AD183076F
:1049C00024D1121F21D351F8043BA3F1013C2CEA5E
:1049D000030C1CF0803C04BF40F8043BF1E79CFA58
:1049E0008CFCBCFA8CF1C1F118018B40CB4040F833
:1049F000043B13E0042A09D311F8013B521E00F8CE
:104A0000013B5BB18B07F7D1D9E7121D5AB111F801
:104A1000013B521E00F8013B03B1F8D111001CBF4D
:104A2000002200F005F801BD62F30F2262F31F427D
:104A3000401810F0030308D0C91A1FD3DB0748BF82
:104A400000F8012D28BF20F8022D130030B41446C1
:104A50001546103928BF20E93C00FAD8490728BF7D
:104A600020E90C0048BF40F8042D890028BF20F839
:104A7000022D48BF00F8012D30BC7047C91818BF7F
:104A800000F8012DCB0728BF00F8012D7047034621
:104A900000E05B1C1A78002AFBD111F801CB83F8E7
:104AA00000C013F8012B002AF7D1704708B438B5BD
:104AB00085B009AC00250494039500290EBF01952B
:104AC0000190491E0291009504AB01A90748784462
:104AD0001A30FBF761FB019901B10D70002858BF36
:104AE000039806B030BC5DF808FB00BF5FC8FFFF4D
:104AF000002200F071BA000013005A1EDBB2002B36
:104B000005D01300DBB2CB5C0370401CF4E77047A8
:104B10002DE9F34F83B015001E000E9F5FF00408CF
:104B20000020ADF800000024012038709DF810002E
:104B3000787002222900404680B23844FFF7DCFF3B
:104B400018F102080122A91C404680B23844FFF740
:104B5000D3FF18F101080422291D404680B23844D1
:104B6000FFF7CAFF18F104080F2002904D4801908A
:104B7000404680B207EB0009029A01994846FCF7CB
:104B8000F1FB18F10F085FF00F09DFF81CA1404698
:104B900080B207EB000B4A4651465846FCF7E2FB51
:104BA00018F10F08082215F11001404680B2384470
:104BB000FFF7A2FF18F108083078414689B278540F
:104BC00018F101080222B11C404680B23844FFF7B8
:104BD00093FF18F1020870680078414689B2785452
:104BE00018F1010802227068811C404680B23844E6
:104BF000FFF782FF18F1020870684288D2B270682D
:104C00004168404680B23844FFF776FF70684088BC
:104C100010EB0808B8F10300ADF800000222694665
:104C2000B81CFFF769FF0020ADF80000BDF90000D7
:104C3000414689B2884209DABDF90000385C24187F
:104C4000BDF80000401CADF80000EFE704F0FF04E1
:104C5000404680B23C541548FEF7D6FD0020ADF822
:104C60000000404680B2BDF9001088420BDBBDF960
:104C70000000395C09A0FEF7C7FDBDF80000401C2C
:104C8000ADF80000EDE706A0FEF7BEFD18F1010843
:104C9000404640B205B0BDE8F08F00002578200006
:104CA0000A0D000048080020580800205856000847
:104CB0000EB418B504000898012817D1A06B30F481
:104CC0008030A063E168DFF8A8020140E160E0689D
:104CD00030F44010E0600F98012803D1E06850F4F0
:104CE0008010E060200000F054F909E0E06850F026
:104CF0004000E060200000F04CF95FF48030A063D9
:104D00000698012807D1A06850F00600A060A068AE
:104D100050F02000A060002012BC5DF810FB0100E4
:104D200088684008400088600020704738B504005B
:104D30000D00E06830F0C040E0602800C0B20128FB
:104D400004D1E06850F00050E06007E02800C0B2F5
:104D5000002803D1E06850F08040E060322000F08D
:104D600055F9002032BD0EB430B5040000250D9871
:104D7000002804D1A06B50F40010A06303E0A06BE6
:104D800050F40020A063002014F56061086014F561
:104D90000060006814F500610860089801280CD1D3
:104DA0000598002804D10021200000F0D5F808E083
:104DB0000121200000F0D0F803E00321200000F0E2
:104DC000CBF81021200000F0A5F8200000F0B4F886
:104DD000002014F500610861002014F500614861AD
:104DE0005FF0FF3014F500618861002014F5006168
:104DF000C86100200399884222D214EB401111F5BA
:104E000010610968002907D55FF0904114EB40124A
:104E100012F51062116005E0002114EB401212F54A
:104E20001062116014EB401111F5106100220A614B
:104E300014EB401111F51061FF228A60401CD9E784
:104E400000210398814222D214EB411010F530600A
:104E50000068002807D55FF0904014EB411212F56E
:104E60003062106005E0002014EB411212F5306250
:104E7000106014EB411010F530600022026114EB59
:104E8000411010F53060FF228260491CD9E714F50B
:104E90000060006930F4807014F5006210610698BB
:104EA000012812D1DFF8240114F50062106314F513
:104EB0000060006B40F4803050F0030014F5006295
:104EC000106314F50060006B01000020A0617FF00A
:104ED000804060610698002803D1A06950F010005E
:104EE000A061A269DFF8E8000243A26109980028E6
:104EF00003D0A06950F00800A0610D98012805D1E9
:104F0000A06940F0804050F00400A061002030BC57
:104F10005DF810FB02000023880150F020001061B2
:104F20005B1CDFF8B000834201D3032003E010696B
:104F30008006F5D40020704701000022102008618F
:104F4000521CDFF89000824201D3032003E008697D
:104F5000C006F5D400207047020012F50060036817
:104F60000800C0B2034312F50060036000207047E0
:104F7000BFFFBDFF10B5040014F50060406850F09D
:104F8000020014F500614860032000F03FF80020A3
:104F900010BD10B401000022521C0E48824201D301
:104FA000032010E00B69002BF6D500230C6954F0A8
:104FB00001040C615B1C834201D3032003E00A69F6
:104FC000D207F7D4002010BC704700000001800019
:104FD00000383C80410D030000B500BF1300964629
:104FE0009446103928BFA0E80C50FAD85FEA417CFB
:104FF00028BF0CC048BF40F8042BC90728BF20F8C1
:10500000022B48BF00F8012B00BD000070B5040062
:10501000FDF7F2FD0500260016F1010F02D004484D
:1050200000783618FDF7E8FD401BB042FAD370BD9A
:10503000E50000200F48016851F4700101600E493D
:10504000086850F00100086000200C4A10600A68EF
:105050000B4802400A600B480B4A1060086830F4A5
:10506000802008600020094908605FF0006008495E
:105070000860704788ED00E00038024008380240C0
:10508000FFFFF6FE10300024043802400C380240C6
:1050900008ED00E0433A5C30335F776F726B7370FA
:1050A0006163655C6961725C6E75636C656F5C659C
:1050B000617379696F745C447269766572735C536D
:1050C000544D3332463478785F48414C5F447269BE
:1050D0007665725C5372635C73746D3332663478D8
:1050E000785F68616C5F636F727465782E6300002F
:1050F000433A5C30335F776F726B73706163655CEA
:105100006961725C6E75636C656F5C65617379690A
:105110006F745C447269766572735C53544D3332BC
:10512000463478785F48414C5F4472697665725CBA
:105130005372635C73746D3332663478785F686180
:105140006C5F6770696F2E6300000000433A5C304B
:10515000335F776F726B73706163655C6961725CFA
:105160006E75636C656F5C65617379696F745C44BF
:105170007269766572735C53544D33324634787875
:105180005F48414C5F4472697665725C5372635C40
:1051900073746D3332663478785F68616C5F756103
:1051A00072742E6300000000433A5C30335F776F07
:1051B000726B73706163655C6961725C6E75636C60
:1051C000656F5C65617379696F745C44726976655B
:1051D00072735C53544D3332463478785F48414C97
:1051E0005F4472697665725C5372635C73746D338D
:1051F00032663478785F68616C5F646D612E63003D
:10520000433A5C30335F776F726B73706163655CD8
:105210006961725C6E75636C656F5C6561737969F9
:105220006F745C447269766572735C53544D3332AB
:10523000463478785F48414C5F4472697665725CA9
:105240005372635C73746D3332663478785F68616F
:105250006C5F7063642E6300433A5C30335F776F3A
:10526000726B73706163655C6961725C6E75636CAF
:10527000656F5C65617379696F745C4472697665AA
:1052800072735C53544D3332463478785F48414CE6
:105290005F4472697665725C5372635C73746D33DC
:1052A00032663478785F68616C5F7263632E630086
:1052B0007047FEE7FEE7FEE7FEE77047704770477E
:1052C00080B500F01FF8FEF7D3FF01BD80B5094897
:1052D000FDF744FE01BD80B50748FCF7B6FF01BDF0
:1052E00080B50648FCF7B1FF01BD80B50448FCF766
:1052F000ACFF01BDD806002088070020C8070020A9
:105300000808002003480168034A127889180160E0
:10531000704700BF6C080020E5000020433A5C3075
:10532000335F776F726B73706163655C6961725C28
:105330006E75636C656F5C65617379696F745C53DE
:1053400072635C7573625F6F74672E6300000000A8
:10535000433A5C30335F776F726B73706163655C87
:105360006961725C6E75636C656F5C6561737969A8
:105370006F745C5372635C6D61696E2E6300000034
:10538000433A5C30335F776F726B73706163655C57
:105390006961725C6E75636C656F5C656173796978
:1053A0006F745C5372635C75736172742E6300007A
:1053B0002A2A2A2A2A2A2A2A2A2A2A2A2A2A2A2A4D
:1053C0002A2A2A2A2A2A2A2A2A2A2A2A2A2A2A2A3D
:1053D0002A2A2A2A2A2A2A2A0A0D000010B5074951
:1053E00079441831064C7C44163404E00A68081DE0
:1053F000114488470146A142F8D110BD2C0000009D
:10540000480000004EF68851CEF20001086840F4D2
:1054100070000860BFF34F8FBFF36F8F4FF00070C5
:10542000E1EE100A70470000F3BDFFFF9007000097
:10543000E800002000000000DBBCFFFFCA03000002
:10544000CE00000000000020696F74207379627341
:10545000797374656D20696E697469616C697A65C8
:105460002E2E2E0A0D0000006661696C20746F20DC
:10547000637265617465206E6577204D324D2063DF
:105480006C69656E740A0D006661696C20746F202A
:1054900073656E64204D324D206E6F74696669636A
:1054A0006174696F6E0A0D0000F00DF8002801D0DC
:1054B000FFF794FFAFF300800020AFF30080FDF70B
:1054C00003FA00F002F80120704700F001B8000074
:1054D00007463846FCF72CFDFBE700006572726F4B
:1054E000723A2066696C653A2025732C206C696ECF
:1054F000653A2025640A0D00637265617465206E4B
:105500006577204D324D20636C69656E743A0A0DE3
:10551000202573006661696C20746F2064656C657A
:105520007465204D324D20636C69656E740A0D0000
:1055300073656E64204D324D206E6F7469666963C9
:105540006174696F6E3A0A0D000000006661696C53
:1055500020746F2073656E64204154636F6D6D61BC
:105560006E640A0D0000000011B581B00C004FF60A
:10557000FF73012201A90248FCF782FD019816BDC4
:10558000C8070020656E746572206D61696E206CBD
:105590006F6F702E2E2E0A0D0000000041542B500C
:1055A000494E473D3131372E36302E3135372E3189
:1055B00033370D0064656C657465204D324D206392
:1055C0006C69656E743A0A0D257300006661696C3A
:1055D00020746F2067657420616E737765720A0DA1
:1055E0000000000038B504460D46284600F006F8D5
:1055F000A84218BF0024204632BD00000149FFF731
:10560000B3BF00BF9C0000204D45333631362065C6
:105610006173792D696F740A0D0000006E6F7469F3
:105620006669636174696F6E3A2025730A0D000024
:1056300073656E6420415420636F6D6D616E643AD2
:105640000A0D000067657420616E737765723A20F9
:1056500025730A0D00000000736574206D65737377
:105660006167653A200A0D0041542B43475041447D
:1056700044523D310D00000041542B4D324D434CFE
:10568000494E45573D00000041542B4D324D434C8F
:105690004944454C0D00000041542B4D324D434CC4
:1056A0004953454E443D000000000000000000004A
:1056B0000102030406070809014880470148004722
:1056C00035500008E156000841542B43494D490D1F
:1056D0000000000041542B434553510D00000000D1
:1056E000AFF30080FFF78EFEFFF7DEFE41542B473D
:1056F000534E0D002C353638332C00002C39300D2C
:1057000000000000253032582000000025303258BB
:105710000000000000061016000610160000000031
:1057200001020304257325730000000000002E0011
:105730004300FFF7FEBFFFF7FEBFFFF7FEBFFFF717
:10574000FEBFFFF7FEBFFFF7FEBFFFF7FEBFFFF78D
:10575000FEBFFFF7FEBFFFF7FEBFFFF7FEBFFFF77D
:10576000FEBFFFF7FEBFFFF7FEBFFFF7FEBFFFF76D
:10577000FEBFFFF7FEBFFFF7FEBFFFF7FEBFFFF75D
:10578000FEBFFFF7FEBFFFF7FEBFFFF7FEBFFFF74D
:10579000FEBFFFF7FEBFFFF7FEBFFFF7FEBFFFF73D
:1057A000FEBFFFF7FEBFFFF7FEBFFFF7FEBFFFF72D
:1057B000FEBFFFF7FEBFFFF7FEBFFFF7FEBFFFF71D
:1057C000FEBFFFF7FEBFFFF7FEBFFFF7FEBFFFF70D
:1057D000FEBFFFF7FEBFFFF7FEBFFFF7FEBFFFF7FD
:1057E000FEBFFFF7FEBFFFF7FEBFFFF7FEBFFFF7ED
:1057F000FEBFFFF7FEBFFFF7FEBFFFF7FEBFFFF7DD
:10580000FEBFFFF7FEBF1014CEFFFFFF3131372E72
:1058100036302E3135372E3133370000100001F08D
:10582000050724F4002C5700080452FF01F2002E53
:105830001410010000300C120144F003161C00008B
:105840002000012002DD1200082C43CB123C210174
:10585000100702040101380700208804523804218F
:0D5860001B610812E060F212CC64034601E7
:04000005080056E1B8
:00000001FF
